:1000000034C44EC44DC44CC44BC44AC449C448C48F
:1000100047C446C445C444C443C442C441C440C4A4
:100020003FC43EC4B0C43CC43BC43AC439C438C461
:1000300037C436C400000000E0201020E0000000BB
:100040000080C040606020202020404080808000F0
:100050000000000000000000010202020100F8FEA2
:1000600007010000000000000000000000013F0048
:1000700000000000000000000000000000003FFF42
:10008000E080000000000000000000000000800090
:100090000000000000000000000000000000000060
:1000A000010307060C0C0C0C0C04040602010000F2
:1000B00000000000000000000080C0404040C08000
:1000C000000000000000F0FE0F0100000000000131
:1000D00007FEF00000001FFFE0000000000000002D
:1000E000C0FF1F0000000000010306040404060313
:1000F000010000000000000000000080C0000000BF
:100100000000000000000001010101FFFF000000ED
:100110000000000000000000000000FFFF000000E1
:1001200000000000000000040404060707060404A1
:100130000400000000000000804040404040C080BB
:100140008000000000001E1900000000000000C137
:100150007F3E0000000000804020100804020100E3
:1001600000E0000000000706060606060606060672
:1001700007010000000000808040404040C08080B7
:100180000000000000000F0F0000808080C0613F71
:100190001E0000000000E0E000000000000101037C
:1001A000FE780000000001030204040404040203BA
:1001B0000100000000000000000000000080C0C03E
:1001C00000000000000000008060300C02FFFFFF14
:1001D0000000000000101C121110101010FFFFFF93
:1001E000101010000000000000000808080F0F0F9A
:1001F0000808080000000000C0C0C0C0C0C0C0C0E7
:10020000C0C00000000000F887402020202060C00F
:10021000800000000000E06100000000000000809D
:10022000FF7E000000000102040404040404020331
:100230000100000000000000000080C0404040407D
:10024000800000000000E0FC0E818040404040C083
:100250008303000000003FFFC30100000000000016
:1002600001FF7E00000000000103060404040402F4
:1002700003010000000000C0C0C0C0C0C0C0C0C0BA
:10028000C0C0000000000F030100000080601806DD
:1002900001000000000000000000E0FC030000007E
:1002A0000000000000000000000007070000000040
:1002B000000000000000000080C040404040C080BE
:1002C0000000000000001E3F71E0C080808080615F
:1002D0003F1E000000F8FC06030100010103070EA9
:1002E000FCF80000000001030204040404040203FB
:1002F000010000000000008080404040404080003D
:100300000000000000FCFF0300000000000000836C
:10031000FEF800000000818306040404040283F157
:100320007F0F00000000030304040404060301001F
:1003300000000000000000000000000000000000BD
:1003400000000000000000000000000000000000AD
:10035000000000000000008080000000000000009D
:100360000000000000000307070300000000000079
:10037000000000000000000000000000000000007D
:1003800000000000000000000000C0E0E0C000002D
:10039000000000000000000000000081810000005B
:1003A0000000000000000000000003070703000039
:1003B00000000000000000000000004F00000007E7
:1003C000000700147F147F14242A7F2A12231308A5
:1003D000646236495522500005030000001C22418A
:1003E000000041221C0014083E081408083E0808BA
:1003F0000050300000080808080800606000002075
:10040000100804023E5149453E00427F40004261CF
:100410005149462141454B311814127F102745455B
:1004200045393C4A49493001710905033649494972
:1004300036064949291E00363600000056360000AF
:100440000814224100141414141400412214080248
:1004500001510906324979413E7E1111117E7F49D1
:100460004949363E414141227F4141221C7F494951
:1004700049417F090909013E4149497A7F08080835
:100480007F00417F41002040413F017F081422410D
:100490007F404040407F020C027F7F0408107F3E77
:1004A0004141413E7F090909063E4151215E7F09D4
:1004B000192946464949493101017F01013F404020
:1004C000403F1F2040201F3F4038403F6314081426
:1004D0006307087008076151494543007F414100A7
:1004E00002040810200041417F0004020102044080
:1004F00040404040010204000020545454787F489A
:100500004444383844444420384444487F385454A0
:100510005418087E090102064949493F7F0804042E
:100520007800447D40002040443D007F1028440076
:1005300000417F40007C0418047C7C080404783867
:10054000444444387C14141408081414187C7C089F
:100550000404084854545420043F4440203C404084
:10056000207C1C2040201C3C4030403C442810286B
:10057000440C5050503C4464544C440008364100F4
:1005800000007F0000004136080002010204023E24
:100590005555412200000000000000790000182499
:1005A000742E24487E4942405D2222225D15167C2D
:1005B000161500007700000A555555280001000166
:1005C00000000A0D0A0408142A1422040404041C5E
:1005D00000080808000101010101000205020044B1
:1005E000445F444400000402017E2020103E060FB8
:1005F0007F007F00181800000040502000000A0D06
:100600000A0022142A14081708342A7D1708046ADD
:1006100059304845402070292628707028262970B6
:10062000702A252A70722926297070292429707051
:100630002A2D2A707E117F49490E515171117C5526
:100640005654447C555654447C565556447C555417
:10065000554400457E440000447E450000467D46EA
:100660000000457C45007F4949413E7C0A11227DBE
:100670003845464438384446453838464546383883
:1006800046454639384544453822140814222E512F
:1006900049453A3C4142403C3C4042413C3C42415D
:1006A000423C3C4140413C0C1062110C7F12121242
:1006B0000C403E0149362055565478205456557802
:1006C0002056555678205556557820555455782043
:1006D0005657567824547854580C52527213385541
:1006E00056541838545655183856555618385554C7
:1006F000551800497A400000487A4100004A794282
:1007000000004A784200314A4E4A307A110A097094
:1007100030494A483030484A4930304A494A3030F6
:100720004A494A31304A484A3008082A0808386499
:10073000544C383841422078384042217838424180
:10074000227838424022780C5052513C7E141414C6
:10075000080C5150513C1E0909295E081515354EEB
:10076000384446452030484A4920384546452030DF
:10077000494A49207C454645382050507C031F1586
:100780001535510E151535467C5556554438555678
:10079000551800447C40007F4844404000497F4455
:1007A000007C0812217C78100A09707C0912217CD7
:1007B00078110A09703847444738304B484B303E6F
:1007C000417F494938443854587C151635487811CA
:1007D0000A09104854565520204856552048555669
:1007E0005520204956552004057E0504083C482222
:1007F000013C4245423C38424522783C4340433C20
:1008000038434023780C1160110C4466554C444821
:100810006A5948004464554C4448685A4800446545
:10082000564D4448695A4900000201020000010285
:1008300001000001010100010202010000000100AD
:1008400000000205020002010201007F05153A5076
:100850003E55554122181408140C444A4A5151512E
:10086000514A4A4474424142740011241FBECFEFE2
:10087000D4E0DEBFCDBF12E0A0E0B1E0E8E0F8E1F7
:1008800002C005900D92A836B107D9F722E0A8E67C
:10089000B2E001C01D92A73CB207E1F74FD4B2C746
:1008A000AFCBEF92FF920F931F93CF93DF93EC01A7
:1008B00068EE73E0DFD4462F7C0163E080E0B4D3C0
:1008C00004E610E0C701B801D5D4462F63E080E10B
:1008D000ABD34AE063E080E2A7D3CE01B801CAD42B
:1008E0000AE010E0B801C6D4462F63E080E39CD351
:1008F000CE01B801BFD4482F63E080E495D363E014
:1009000080E5DF91CF911F910F91FF90EF90C7C3CA
:10091000813009F0089580910A0180930F01809140
:100920000B018093100180910C0180931101809143
:100930000D018093120180910E018093130108959F
:1009400022E02AB923E02BB99093C5008093C4001C
:100950001092C00086E08093C20088E98093C100B5
:1009600078940895CF93C82F8A3051F09091C000A9
:1009700095FFFCCFC093C60080E090E0CF91089532
:100980008DE0F0DFF3CF1F920F920FB60F9211247C
:100990008F938FEF85B98091C0008871C1F082E09C
:1009A0008AB983E08BB91092C50083E38093C400B9
:1009B0001092C00086E08093C20088E98093C10055
:1009C00078948F910F900FBE0F901F901895809183
:1009D000C60080936D028F910F900FBE0F901F90F5
:1009E0001895882391F0A8EBB2E08150282F30E0D1
:1009F00027543D4F80E0ED91E827F0E0EE5DFE4F9B
:100A00008081A217B307B9F7089580E00895539A3B
:100A10005B9887EE93E00197F1F700C000005B9AC6
:100A200095ED9A95F1F7000089B1EFEDF1E031977E
:100A3000F1F700C000005B9A83FB882780F991E002
:100A40008927089598E00CC05B9A20EA2A95F1F76F
:100A50005B9A2AE12A95F1F700C08695915049F0FA
:100A60005B982DE02A95F1F7000080FDEDCF5B98B3
:100A7000ECCF089598E080E086955B982DE02A956C
:100A8000F1F700005B9A2DE02A95F1F700004B99F1
:100A9000806825ED2A95F1F700005B9A915061F787
:100AA0005B9A08950F931F93CF93DF93082F8823AA
:100AB00099F0C091AE02D091AF0210E0DBDF8883E5
:100AC000C091AE02D091AF022196D093AF02C093F5
:100AD000AE021F5F1013F2CFDF91CF911F910F91E4
:100AE000089595DF83E3AEDF88E0DCCF90DF8CEC08
:100AF000A9DF8EE4A7DF89E1A5DF8AE1A3DF8FE725
:100B0000A1DF85DF8CEC9EDF88E49CDF80DF8CEC4E
:100B100099DF88EB97CF89E0C5DFA8EBB2E080E0F2
:100B2000ED91E827F0E0EE5DFE4F808142E0A13CD0
:100B3000B407B1F781112BC09091B90280E02091E8
:100B4000B802AC01422B9A01922F9295907F69E9ED
:100B500079E17CD3CB01880F991F660F771F660F51
:100B6000771F660F771F860F971F329522952F707C
:100B700023273F70232764E6629FA001639F500DE7
:100B80001124840F951F9093690280936802089541
:100B900080EB92E09093AF028093AE02A2DFA6DFDB
:100BA00036DF8CEC4FDF84E44DDF31DF8CEC4ADF45
:100BB0008EEB48DF88EB92E09093AF028093AE0219
:100BC000AACF29982A9A2D98089584B18E6284B963
:100BD0008CB580658CBD08958EBD0DB407FEFDCF2C
:100BE0008EB508952A988EBD0DB407FEFDCF8EB543
:100BF0006EBD0DB407FEFDCF9EB52A9A08952A98C2
:100C00008EBD0DB407FEFDCF8EB51EBC0DB407FE24
:100C1000FDCF8EB52A9A08952A988EBD0DB407FE91
:100C2000FDCF8EB5442359F0FB011EBC0DB407FE69
:100C3000FDCF9EB591939E2F961B9417B0F32A9AE1
:100C400008952A988EBD0DB407FEFDCF8EB54423BE
:100C500059F0FB0191919EBD0DB407FEFDCF9EB5ED
:100C60009E2F961B9417B0F32A9A0895299A6DE047
:100C700080E2B8DF299A85E38A95F1F700000895AC
:100C8000CF93DF93EC01F2DF299A45E0BE0180E3C8
:100C9000D8DF45E0BE018AE2D4DF40E26EE872E0D0
:100CA00080EACFDF61E081E29DDF61E082E29ADFEE
:100CB00061E084E297DF68E285E294DF67E086E244
:100CC00091DF6EE080E28EDF299ADF91CF91089567
:100CD000CF93DF93EC01CADF299A45E0BE018AE297
:100CE000B0DF61E081E27EDF61E082E27BDF68E22B
:100CF00085E278DF60E281E375DF67E086E272DF3C
:100D00006FE080E26FDF299ADF91CF9108952A98F2
:100D1000813041F082EE8EBD0DB407FEFDCF8EB561
:100D20002A9A089581EE8EBD0DB407FEFDCF8EB5D3
:100D30002A9A089580E0EBDF81E0E9DF6FEF87E238
:100D400051CF1F93CF93DF931F92CDB7DEB7C0DF94
:100D50008FE193E00197F1F700C0000087E04FDFDB
:100D6000182F6FEF87E23EDF16FD09C080E0898310
:100D7000E1DF89810F90DF91CF911F91089540E2CB
:100D80006EE672E081E648DF81E08983D3DF898106
:100D90000F90DF91CF911F910895CF9371DF4A9902
:100DA000FECF87E02CDFC82F6FEF87E21BDFC5FD8A
:100DB00004C0C0DF80E0CF910895BCDF81E0CF9117
:100DC00008955D9860556EBD0DB407FEFDCF982F58
:100DD00092959F7090619EBD0DB407FEFDCF8E7001
:100DE00081608EBD0DB407FEFDCF08958830C8F434
:100DF000282F205530E8839FC00111245D982EBD17
:100E00000DB407FEFDCF1EBC0DB407FEFDCF20E1E3
:100E10002EBD0DB407FEFDCF90936C0280936B0244
:100E2000089580E090E020EBE9CF90EB20E15D9821
:100E30009EBD0DB407FEFDCF1EBC0DB407FEFDCF59
:100E40002EBD0DB407FEFDCF5D9A80E01EBC0DB433
:100E500007FEFDCF8F5F8038C9F79F5F983B39F75A
:100E600080E0C4CF84B18C6284B980E58CBD8AB146
:100E700080638AB95C982FE788E391E02150804035
:100E80009040E1F700C000005C9A5D988EEA8EBD4C
:100E90000DB407FEFDCF1EBC0DB407FEFDCF80E1F3
:100EA0008EBD0DB407FEFDCF80E48EBD0DB407FEF0
:100EB000FDCF81E88EBD0DB407FEFDCF8FEC8EBD5A
:100EC0000DB407FEFDCF81EA8EBD0DB407FEFDCF48
:100ED00088EC8EBD0DB407FEFDCF86EA8EBD0DB445
:100EE00007FEFDCF88EA8EBD0DB407FEFDCF8FE370
:100EF0008EBD0DB407FEFDCF83ED8EBD0DB407FE94
:100F0000FDCF1EBC0DB407FEFDCF85ED8EBD0DB42B
:100F100007FEFDCF80E88EBD0DB407FEFDCF89ED45
:100F20008EBD0DB407FEFDCF81EF8EBD0DB407FE63
:100F3000FDCF8AED8EBD0DB407FEFDCF82E18EBDE3
:100F40000DB407FEFDCF8BED8EBD0DB407FEFDCFBA
:100F500080E48EBD0DB407FEFDCF80E28EBD0DB4E2
:100F600007FEFDCF82E08EBD0DB407FEFDCF8DE8FC
:100F70008EBD0DB407FEFDCF84E18EBD0DB407FE1E
:100F8000FDCF84EA8EBD0DB407FEFDCF86EA8EBD8F
:100F90000DB407FEFDCF8FEA8EBD0DB407FEFDCF69
:100FA00044CFCF93C82F60916B0270916C029B016C
:100FB0002F7733272D37310550F5C0525D9A8C2F8E
:100FC000992787FD909520E030E0AC01440F551F34
:100FD000440F551F480F591F4C545C4FFA01E20F44
:100FE000F31FE491EEBD0DB407FEFDCF2F5F3F4F21
:100FF0002530310599F71EBC0DB407FEFDCF6A5FA1
:101000007F4F70936C0260936B02CF910895CB0178
:10101000880F892F881F990B91958F5FE7DE60916C
:101020006B0270916C02C9CFFF920F931F93CF9305
:10103000DF93082FF62EC42FC4DE1F2D1F5F84E020
:10104000C802E001112485E0F80E5D9A20E030E04E
:10105000AE0142955295507F5427407F54274C54FF
:101060005F4FFA01E20FF31FE491EEBD0DB407FEEE
:10107000FDCF2F5F3F4F2031310599F71EBC0DB4D6
:1010800007FEFDCF612F802F9CDE1F5F21961F1171
:10109000DCCFDF91CF911F910F91FF9008950F93B7
:1010A0001F93CF93DF93082F162F8BDE1F5FC0E0B7
:1010B000D0E05D9A20E030E0AE01440F551F42952C
:1010C0005295507F5427407F54274C5C5F4FFA0164
:1010D000E20FF31FE491EEBD0DB407FEFDCF2F5FCD
:1010E0003F4F2032310599F71EBC0DB407FEFDCFEE
:1010F000612F802F66DE21961F5FC430D105C9F6AF
:10110000DF91CF911F910F910895CF93DF93EC0161
:101110008881882329F0219644DF89918111FCCFB1
:10112000DF91CF91089584B18C6284B980E58CBD44
:1011300008958EBD0DB407FEFDCF089510926A028A
:1011400080910A0180930F0180910B01809310011F
:1011500080910C018093110180910D018093120107
:1011600080910E018093130183E390E0E9DB84E139
:1011700091E09093C4028093C30227DD569A5E9853
:1011800071DEB12C80E3C82E82E0D82E94E5E92EE2
:1011900092E0F92E28ECA22EB3945E9846DE81E010
:1011A00025DE82E292E0B1DF5E9A80916A028130B0
:1011B00099F18FE091E0C5DD10916E0200E0809121
:1011C0006F02E801C82B5E9882E010DE8FE392E0A8
:1011D0009CDFCE0166DB5E9ADF93CF93FF92EF92A6
:1011E0005CD00F900F900F900F909FEF29E688E151
:1011F000915020408040E1F700C0000081E098EC71
:10120000B91608F480E02B2D8A9D20191124211194
:10121000C3CF5E9827DEC0CFBBDC809169028F937D
:10122000809168028F93DF92CF9237D080916802CD
:101230009091690290938E0280938F028FE091E0EB
:10124000ACDD0F900F900F900F90CFCFAA1BBB1B60
:1012500051E107C0AA1FBB1FA617B70710F0A61BB6
:10126000B70B881F991F5A95A9F780959095BC01D7
:10127000CD01089597FB072E16F4009406D077FD54
:1012800008D0E4DF07FC05D03EF4909581959F4F90
:101290000895709561957F4F0895A0E0B0E0E2E574
:1012A000F9E089C2FE01359661917191AF0180919B
:1012B000C3029091C40202D0E2E099C2ACE0B0E077
:1012C000E3E6F9E068C27C016B018A01FC01178248
:1012D0001682838181FFB9C188248394912C8C0E5E
:1012E0009D1EF7019381F60193FD859193FF8191F6
:1012F0006F01882309F4A5C1853239F493FD8591E6
:1013000093FF81916F01853221F4B70190E0B9D14B
:10131000E8CF512C312C20E02032A8F48B3261F040
:1013200028F4803251F0833271F40BC08D3239F0E1
:10133000803349F4216028C02260246025C02860E1
:1013400023C0206121C027FD27C0382F30533A30F9
:1013500078F426FF06C0FAE05F9E300D1124532E6C
:1013600013C08AE0389E300D1124332E20620CC049
:101370008E3221F426FD65C1206406C08C3611F43E
:10138000206802C0883641F4F60193FD859193FFF1
:1013900081916F018111C0CF982F9554933018F02F
:1013A0009052933028F40C5F1F4FFFE3F9830DC078
:1013B000833631F0833771F0833509F05AC022C08B
:1013C000F801808189830E5F1F4F44244394512C80
:1013D000540114C03801F2E06F0E711CF801A080B6
:1013E000B18026FF03C0652D70E002C06FEF7FEF74
:1013F000C5012C873BD12C0183012C856FE7262E5C
:10140000222217C03801F2E06F0E711CF801A08093
:10141000B18026FF03C0652D70E002C06FEF7FEF43
:10142000C5012C8718D12C012C8550E8252E222AA5
:10143000830123FC1AC005C0B70180E290E021D1EE
:101440003A94832D90E048165906B0F30EC0F5018A
:1014500027FC859127FE81915F01B70190E011D1B2
:1014600031103A94F1E04F1A51084114510479F7C0
:10147000E5C0843611F0893639F5F80127FF07C039
:1014800060817181828193810C5F1F4F08C06081F0
:101490007181882777FD8095982F0E5F1F4F4FE64B
:1014A000B42EB22297FF09C09095809570956195F2
:1014B0007F4F8F4F9F4FF0E8BF2A2AE030E0A40112
:1014C0000CD1A82EA81842C0853731F43FEEB32EB8
:1014D000B2222AE030E024C099EFB92EB2228F3632
:1014E000B9F020F4883509F0ACC00DC0803721F088
:1014F000883709F0A6C002C020E1B22AB4FE0BC0B2
:1015000084E0B82A08C024FF09C0E6E0BE2A06C06D
:1015100028E030E005C020E130E002C020E132E008
:10152000F801B7FE07C060817181828193810C5FF1
:101530001F4F06C06081718180E090E00E5F1F4FF9
:10154000A401CBD0A82EA818FFE7BF22B6FE0BC07F
:101550002B2D2E7FA51450F4B4FE0AC0B2FC08C097
:101560002B2D2E7E05C07A2C2B2D03C07A2C01C08A
:10157000752C24FF0DC0FE01EA0DF11D8081803322
:1015800011F4297E09C022FF06C07394739404C02D
:10159000822F867809F0739423FD13C020FF0EC0BC
:1015A0005A2C731458F4530C5718732C07C0B701F6
:1015B00080E290E02C8765D073942C857314B8F387
:1015C00004C0731410F4371801C0312C24FF11C06B
:1015D000B70180E390E02C8754D02C8522FF1CC0FB
:1015E00021FF03C088E590E002C088E790E0B701E2
:1015F0000CC0822F867881F021FD02C080E201C0FC
:101600008BE227FD8DE2B70190E03BD005C0B7012A
:1016100080E390E036D05A94A514C8F3AA94F4015C
:10162000EA0DF11DB701808190E02BD0A110F6CF1B
:1016300005C0B70180E290E024D03A943110F9CF90
:1016400050CEF7012681378102C02FEF3FEFC9014D
:101650002C96E2E1BCC0FC01059061507040011085
:10166000D8F7809590958E0F9F1F0895FC016150CB
:10167000704001900110D8F7809590958E0F9F1FB4
:1016800008950F931F93CF93DF938C01EB018B8110
:1016900081FD03C00FEF1FEF1AC082FF0DC02E8126
:1016A0003F818C819D812817390764F4E881F98195
:1016B0000193F983E88306C0E885F985802F0995B1
:1016C000892B41F78E819F8101969F838E83C8016C
:1016D000DF91CF911F910F910895FA01AA27283029
:1016E00051F1203181F1E8946F936E7F6E5F7F4FEF
:1016F0008F4F9F4FAF4FB1E03ED0B4E03CD0670F6B
:10170000781F891F9A1FA11D680F791F8A1F911DBD
:10171000A11D6A0F711D811D911DA11D20D009F40D
:1017200068943F912AE0269F11243019305D31934F
:10173000DEF6CF010895462F4770405D4193B3E038
:101740000FD0C9F7F6CF462F4F70405D4A3318F0DF
:10175000495D31FD4052419302D0A9F7EACFB4E090
:10176000A6959795879577956795BA95C9F7009748
:101770006105710508959B01AC010A2E06945795E9
:10178000479537952795BA95C9F7620F731F841F40
:10179000951FA01D08952F923F924F925F926F92D6
:1017A0007F928F929F92AF92BF92CF92DF92EF92F1
:1017B000FF920F931F93CF93DF93CDB7DEB7CA1B72
:1017C000DB0B0FB6F894DEBF0FBECDBF09942A889D
:1017D000398848885F846E847D848C849B84AA8445
:1017E000B984C884DF80EE80FD800C811B81AA81D2
:1017F000B981CE0FD11D0FB6F894DEBF0FBECDBF9D
:08180000ED010895F894FFCFFB
:1018080030313233343536373839344310100234F6
:10181800431010010000000200000000B2040000A4
:101828000000005EBCE2613FDD83C29C7E20A3FD18
:101838001F419DC3217FFCA2401E5F01E3BD3E60A6
:1018480082DC237D9FC1421CFEA0E1BF5D0380DED8
:101858003C62BEE0025CDF81633D7C22C09E1D438A
:10186800A1FF4618FAA427799BC584DA3866E5BB38
:101878005907DB856739BAE406581947A5FB782666
:10188800C49A653BD987045AB8E6A7F91B45C69898
:101898007A24F8A6441A99C7257B3A6486D85B054A
:1018A800E7B98CD2306EEDB3510F4E10F2AC2F71F8
:1018B80093CD114FADF3702ECC92D38D6F31B2EC26
:1018C8000E50AFF1134DCE90722C6D33D18F0C5258
:1018D800B0EE326C8ED0530DEFB1F0AE4C1291CF0A
:1018E8002D73CA947628ABF517490856B4EA6937B8
:1018F800D58B5709EBB536688AD495CB2977F4AAE6
:101908004816E9B7550B88D6346A2B7597C94A1417
:10191800F6A8742AC896154BA9F7B6E80A54D789C9
:101928006B355545534320656E765F62617365007C
:1019380074686520746D702069732025640A0054EA
:1019480068652054656D706572617475726520698B
:1019580073203A007468652072637620646174614C
:081968002069732025640A00C8
:00000001FF
