S00C00006D61696E2E7372656373
S113000074C28EC28DC28CC28BC28AC289C288C29B
S113001087C286C285C284C283C282C281C280C2B0
S11300207FC27EC27DC27CC27BC27AC279C278C2E0
S113003077C276C2000000000000004F00000007F5
S1130040000700147F147F14242A7F2A1223130824
S1130050646236495522500005030000001C224109
S1130060000041221C0014083E081408083E080839
S113007000503000000808080808006060000020F4
S1130080100804023E5149453E00427F400042614F
S11300905149462141454B311814127F10274545DB
S11300A045393C4A494930017109050336494949F2
S11300B036064949291E003636000000563600002F
S11300C008142241001414141414004122140802C8
S11300D001510906324979413E7E1111117E7F4951
S11300E04949363E414141227F4141221C7F4949D1
S11300F049417F090909013E4149497A7F080808B5
S11301007F00417F41002040413F017F081422418C
S11301107F404040407F020C027F7F0408107F3EF6
S11301204141413E7F090909063E4151215E7F0953
S1130130192946464949493101017F01013F40409F
S1130140403F1F2040201F3F4038403F63140814A5
S11301506307087008076151494543007F41410026
S113016002040810200041417F00040201020440FF
S113017040404040010204000020545454787F4819
S11301804444383844444420384444487F38545420
S11301905418087E090102064949493F7F080404AE
S11301A07800447D40002040443D007F10284400F6
S11301B000417F40007C0418047C7C0804047838E7
S11301C0444444387C14141408081414187C7C081F
S11301D00404084854545420043F4440203C404004
S11301E0207C1C2040201C3C4030403C44281028EB
S11301F0440C5050503C4464544C44000836410074
S113020000007F0000004136080002010204023EA3
S11302105555412200000000000000790000182418
S1130220742E24487E4942405D2222225D15167CAC
S1130230161500007700000A5555552800010001E5
S113024000000A0D0A0408142A1422040404041CDD
S11302500008080800010101010100020502004430
S1130260445F444400000402017E2020103E060F37
S11302707F007F00181800000040502000000A0D85
S11302800A0022142A14081708342A7D1708046A5D
S11302905930484540207029262870702826297036
S11302A0702A252A707229262970702924297070D1
S11302B02A2D2A707E117F49490E515171117C55A6
S11302C05654447C555654447C565556447C555497
S11302D0554400457E440000447E450000467D466A
S11302E00000457C45007F4949413E7C0A11227D3E
S11302F03845464438384446453838464546383803
S113030046454639384544453822140814222E51AE
S113031049453A3C4142403C3C4042413C3C4241DC
S1130320423C3C4140413C0C1062110C7F121212C1
S11303300C403E0149362055565478205456557881
S113034020565556782055565578205554557820C2
S11303505657567824547854580C525272133855C0
S11303605654183854565518385655561838555446
S1130370551800497A400000487A4100004A794201
S113038000004A784200314A4E4A307A110A097014
S113039030494A483030484A4930304A494A303076
S11303A04A494A31304A484A3008082A0808386419
S11303B0544C383841422078384042217838424100
S11303C0227838424022780C5052513C7E14141446
S11303D0080C5150513C1E0909295E081515354E6B
S11303E0384446452030484A49203845464520305F
S11303F0494A49207C454645382050507C031F1506
S11304001535510E151535467C55565544385556F7
S1130410551800447C40007F4844404000497F44D4
S1130420007C0812217C78100A09707C0912217C56
S113043078110A09703847444738304B484B303EEE
S1130440417F494938443854587C15163548781149
S11304500A091048545655202048565520485556E8
S11304605520204956552004057E0504083C4822A1
S1130470013C4245423C38424522783C4340433C9F
S113048038434023780C1160110C4466554C4448A1
S11304906A5948004464554C4448685A48004465C5
S11304A0564D4448695A4900000201020000010205
S11304B0010000010101000102020100000001002D
S11304C000000205020002010201007F05153A50F6
S11304D03E55554122181408140C444A4A515151AE
S11304E0514A4A4474424142740011241FBECFEF62
S11304F0D4E0DEBFCDBF11E0A0E0B1E0E2EAF7E076
S113050002C005900D92AE32B107D9F721E0AEE2F8
S1130510B1E001C01D92A033B207E1F739D13FC168
S11305206FCD8830C8F4282F205530E8839FC00150
S1130530112429982EBD0DB407FEFDCF1EBC0DB4A9
S113054007FEFDCF20E12EBD0DB407FEFDCF909335
S11305502F0180932E01089580E090E020EBE9CFF5
S113056090EB20E129989EBD0DB407FEFDCF1EBC83
S11305700DB407FEFDCF2EBD0DB407FEFDCF299AA5
S113058080E01EBC0DB407FEFDCF8F5F8038C9F735
S11305909F5F983B39F780E0C4CF84B18C6284B903
S11305A080E58CBD84B1836084B928982FE788E303
S11305B091E0215080409040E1F700C00000289A6B
S11305C029988EEA8EBD0DB407FEFDCF1EBC0DB476
S11305D007FEFDCF80E18EBD0DB407FEFDCF80E4A4
S11305E08EBD0DB407FEFDCF81E88EBD0DB407FEB0
S11305F0FDCF8FEC8EBD0DB407FEFDCF81EA8EBD1D
S11306000DB407FEFDCF88EC8EBD0DB407FEFDCF03
S113061086EA8EBD0DB407FEFDCF88EA8EBD0DB40B
S113062007FEFDCF8FE38EBD0DB407FEFDCF83ED36
S11306308EBD0DB407FEFDCF1EBC0DB407FEFDCF6D
S113064085ED8EBD0DB407FEFDCF80E88EBD0DB4E3
S113065007FEFDCF89ED8EBD0DB407FEFDCF81EF02
S11306608EBD0DB407FEFDCF8AED8EBD0DB407FE21
S1130670FDCF82E18EBD0DB407FEFDCF8BED8EBDA7
S11306800DB407FEFDCF80E48EBD0DB407FEFDCF93
S113069080E28EBD0DB407FEFDCF82E08EBD0DB4A9
S11306A007FEFDCF8DE88EBD0DB407FEFDCF84E1BE
S11306B08EBD0DB407FEFDCF84EA8EBD0DB407FEDA
S11306C0FDCF86EA8EBD0DB407FEFDCF8FEA8EBD49
S11306D00DB407FEFDCF44CFCF93C82F60912E01F8
S11306E070912F019B012F7733272D37310550F55A
S11306F0C052299A8C2F992787FD909520E030E0ED
S1130700AC01440F551F440F551F480F591F4C5C33
S11307105F4FFA01E20FF31FE491EEBD0DB407FE43
S1130720FDCF2F5F3F4F2530310599F71EBC0DB427
S113073007FEFDCF6A5F7F4F70932F0160932E01F8
S1130740CF910895CB01880F892F881F990B91951C
S11307508F5FE7DE60912E0170912F01C9CFCF9397
S1130760DF93EC018881882329F02196B5DF8991F4
S11307708111FCCFDF91CF91089584B18C6284B94B
S113078080E58CBD08958EBD0DB407FEFDCF0895A0
S113079004DF80E0C6DE80E091E0E1DFFFCFF89483
S10507A0FFCF85
S11307A254686520416476616E63656420456E63B6
S11307B272797074696F6E205374616E64617264CD
S11107C22069732061206261642070707000F1
S9030000FC
