:100000000C942A000C9447000C9447000C94470071
:100010000C9447000C9447000C9447000C94470044
:100020000C9447000C9447000C9447000C94640017
:100030000C9447000C9447000C9447000C94470024
:100040000C9447000C9447000C9447000C94470014
:100050000C94470011241FBECFE5D4E0DEBFCDBF16
:1000600010E0A0E6B0E0E0ECF1E002C005900D92F7
:10007000AC37B107D9F720E0ACE7B0E001C01D9282
:10008000A338B207E1F70E948A000C94DE000C94BA
:100090000000899A22B3236022BB90BD89B91BB8A6
:1000A00088E98AB986E880BD0895CF93C82F8A3041
:1000B00039F05D9BFECFCCB980E090E0CF91089500
:1000C0008DE00E945500F5CF1F920F920FB60F9250
:1000D00011248F938BB18C7191F0899A82B38360D4
:1000E00082BB10BC89E189B91BB888E98AB986E866
:1000F00080BD8F910F900FBE0F901F9018958CB1FF
:1001000080937C008FEF85BB8F910F900FBE0F9077
:100110001F9018958FEF84BB15BA89E190E00E947B
:10012000490078948DE690E09093800080937F0062
:10013000CFEF80917C00811105C0C5BB80917C0010
:100140008823D9F315BA80917C0090E00E94AB001F
:1001500010927C00EECF60917F00709180000E9431
:10016000B20008950F931F93CF93DF938C01EB019F
:100170008B8181FD03C00FEF1FEF1AC082FF0DC0FE
:100180002E813F818C819D812817390764F4E88195
:10019000F9810193F983E88306C0E885F985802F0A
:1001A0000995892B41F78E819F8101969F838E83CC
:1001B000C801DF91CF911F910F910895F894FFCF5F
:1001C00068656C6C6F20776F726C640A00000000C9
:0C01D000020000000055000000000000CC
:00000001FF
